:0400000002001132B7
:03000B0002006D83
:03006A0002000E83
:03000E000200B439
:10006D00C0E0C0D0758CFC758A2274012509F50994
:10007D00E4350AF50AE4350BF50BE4350CF50C7592
:10008D000801D0D0D0E032750800AC09AD0AAE0B36
:10009D00AF0CE50870F18C828D838EF0EF22AF826C
:1000AD008F061FEE70FA22758CFC758A1E758901FC
:1000BD0043A882438810120094AC82AD83AEF0FF4A
:1000CD007511E8751203E4F513F5148C828D838E8A
:1000DD00F0EF12029585820D85830E85F00FF510D8
:1000ED0075113CE4F512F513F514850D82850E831B
:1000FD00850FF0E510120212A88275B08075F00A16
:10010D00E884E5F09002FE93F5A075823CC00012E4
:10011D0000ABD00075B04075F00AE8849002FE93F4
:10012D00F5A075823C1200AB75113CE4F512F51388
:10013D00F514850D82850E83850FF0E5101202955D
:10014D0085820D85830E85F00FF51075113CE4F554
:10015D0012F513F514850D82850E83850FF0E510CC
:10016D00120212A982890075B01075F00AE884E5B3
:10017D00F09002FE93F5A075823CC0001200ABD04A
:10018D000075B00875F00AE8849002FE93F5A0752D
:10019D00823C1200AB75113CE4F512F513F5148594
:1001AD000D82850E83850FF0E51012029585820D67
:1001BD0085830E85F00FF51075113CE4F512F513DE
:1001CD00F514850D82850E83850FF0E51012021250
:1001DD00AC828C0075B00275F00AE884E5F09002EF
:1001ED00FE93F5A075823CC0001200ABD00075B037
:1001FD000175F00AE8849002FE93F5A075823C1219
:05020D0000AB0200C37C
:1002FE00C0F9A4B0999282F880908883C6A1868EA8
:10021200F9E51145124513451460777800C308E5E6
:100222001420E73BE51125E0F511E51233F512E55F
:100232001333F513E51433F514E5829511E583952F
:1002420012E5F09513E9951450D4C3E51413F5148F
:10025200E51313F513E51213F512E51113F511E584
:10026200829511FCE5839512FDE5F09513FEE99563
:10027200144007F98EF08D838C82C3E51413F514B4
:10028200E51313F513E51213F512E51113F511D861
:10029200CEE922FB7A20E4FCFDFEFFE5822582F511
:1002A20082E58333F583E5F033F5F0EB33FB40175A
:1002B200DAE98042E5822582F582E58333F583E53A
:1002C200F033F5F0EB33FBEC33FCED33FDEE33FEB4
:1002D200EF33FFEC9511ED9512EE9513EF95144067
:1002E20013EC9511FCED9512FDEE9513FEEF9514AE
:0802F200FF438201DABEEB229A
:06004000E478FFF6D8FD94
:10001E007900E94400601B7A0090030E780175A008
:10002E0000E493F2A308B8000205A0D9F4DAF27541
:02003E00A0FF21
:100046007800E84400600A790175A000E4F309D855
:10005600FC7800E84400600C7900900001E4F0A30D
:04006600D8FCD9FAEF
:0D0011007581141202FAE582600302000EF0
:0402FA0075820022E7
:00000001FF
