:0400000002001132B7
:03000B0002006D83
:03006A0002000E83
:03000E000200AB42
:20006D00C0E0C0D0758CFD758A6374012509F509E4350AF50AE4350BF50BE4350CF50C7561
:20008D000801D0D0D0E032750800AC09AD0AAE0BAF0CE50870F18C828D838EF0EF22758C6F
:2000AD00FD758A6375890143A882438810120094AC82AD83AEF0FF750DE8750E03E4F50F14
:1900CD00F5108C828D838EF0EF1200E6AC82AD83AEF0FFECF4F5B080D4BE
:2000E600FB7A20E4FCFDFEFFE5822582F582E58333F583E5F033F5F0EB33FB4017DAE98053
:2001060042E5822582F582E58333F583E5F033F5F0EB33FBEC33FCED33FDEE33FEEF33FF81
:20012600EC950DED950EEE950FEF95104013EC950DFCED950EFDEE950FFEEF9510FF438223
:0501460001DABEEB220E
:06004000E478FFF6D8FD94
:20001E007900E94400601B7A0090014F780175A000E493F2A308B8000205A0D9F4DAF27538
:02003E00A0FF21
:200046007800E84400600A790175A000E4F309D8FC7800E84400600C7900900001E4F0A3B8
:04006600D8FCD9FAEF
:0D00110075811012014BE582600302000EA4
:04014B007582002297
:00000001FF
